{
  "_format": "hh-sol-artifact-1",
  "contractName": "MultiPromptStory",
  "sourceName": "contracts/NeverEndingStory.sol",
  "abi": [
    {
      "inputs": [
        {
          "internalType": "uint64",
          "name": "_subscriptionId",
          "type": "uint64"
        }
      ],
      "stateMutability": "nonpayable",
      "type": "constructor"
    },
    {
      "inputs": [
        {
          "internalType": "address",
          "name": "have",
          "type": "address"
        },
        {
          "internalType": "address",
          "name": "want",
          "type": "address"
        }
      ],
      "name": "OnlyCoordinatorCanFulfill",
      "type": "error"
    },
    {
      "anonymous": false,
      "inputs": [
        {
          "indexed": true,
          "internalType": "address",
          "name": "winner",
          "type": "address"
        },
        {
          "indexed": false,
          "internalType": "uint256",
          "name": "amount",
          "type": "uint256"
        }
      ],
      "name": "PotDistribution",
      "type": "event"
    },
    {
      "anonymous": false,
      "inputs": [
        {
          "indexed": true,
          "internalType": "uint256",
          "name": "roundId",
          "type": "uint256"
        },
        {
          "indexed": false,
          "internalType": "uint256",
          "name": "promptId",
          "type": "uint256"
        },
        {
          "indexed": true,
          "internalType": "address",
          "name": "creator",
          "type": "address"
        },
        {
          "indexed": false,
          "internalType": "string",
          "name": "text",
          "type": "string"
        }
      ],
      "name": "PromptSubmitted",
      "type": "event"
    },
    {
      "anonymous": false,
      "inputs": [
        {
          "indexed": true,
          "internalType": "uint256",
          "name": "roundId",
          "type": "uint256"
        }
      ],
      "name": "RoundAdvancedToVoting",
      "type": "event"
    },
    {
      "anonymous": false,
      "inputs": [
        {
          "indexed": true,
          "internalType": "uint256",
          "name": "roundId",
          "type": "uint256"
        },
        {
          "indexed": false,
          "internalType": "uint256",
          "name": "winningPromptId",
          "type": "uint256"
        },
        {
          "indexed": false,
          "internalType": "string",
          "name": "text",
          "type": "string"
        }
      ],
      "name": "RoundFinalized",
      "type": "event"
    },
    {
      "anonymous": false,
      "inputs": [
        {
          "indexed": true,
          "internalType": "address",
          "name": "sender",
          "type": "address"
        },
        {
          "indexed": false,
          "internalType": "string",
          "name": "message",
          "type": "string"
        },
        {
          "indexed": false,
          "internalType": "uint256",
          "name": "feePaid",
          "type": "uint256"
        }
      ],
      "name": "ShoutOut",
      "type": "event"
    },
    {
      "anonymous": false,
      "inputs": [
        {
          "indexed": true,
          "internalType": "uint256",
          "name": "roundId",
          "type": "uint256"
        },
        {
          "indexed": true,
          "internalType": "uint256",
          "name": "promptId",
          "type": "uint256"
        },
        {
          "indexed": false,
          "internalType": "address",
          "name": "voter",
          "type": "address"
        },
        {
          "indexed": false,
          "internalType": "uint256",
          "name": "amount",
          "type": "uint256"
        }
      ],
      "name": "VoteCast",
      "type": "event"
    },
    {
      "inputs": [],
      "name": "DEV_FEE_PERCENT",
      "outputs": [
        {
          "internalType": "uint256",
          "name": "",
          "type": "uint256"
        }
      ],
      "stateMutability": "view",
      "type": "function"
    },
    {
      "inputs": [],
      "name": "IDLE_DURATION",
      "outputs": [
        {
          "internalType": "uint256",
          "name": "",
          "type": "uint256"
        }
      ],
      "stateMutability": "view",
      "type": "function"
    },
    {
      "inputs": [],
      "name": "SUBMISSION_DURATION",
      "outputs": [
        {
          "internalType": "uint256",
          "name": "",
          "type": "uint256"
        }
      ],
      "stateMutability": "view",
      "type": "function"
    },
    {
      "inputs": [],
      "name": "VOTING_DURATION",
      "outputs": [
        {
          "internalType": "uint256",
          "name": "",
          "type": "uint256"
        }
      ],
      "stateMutability": "view",
      "type": "function"
    },
    {
      "inputs": [
        {
          "internalType": "string",
          "name": "_msg",
          "type": "string"
        }
      ],
      "name": "adminMessage",
      "outputs": [],
      "stateMutability": "nonpayable",
      "type": "function"
    },
    {
      "inputs": [],
      "name": "advanceToVoting",
      "outputs": [],
      "stateMutability": "nonpayable",
      "type": "function"
    },
    {
      "inputs": [],
      "name": "currentRoundId",
      "outputs": [
        {
          "internalType": "uint256",
          "name": "",
          "type": "uint256"
        }
      ],
      "stateMutability": "view",
      "type": "function"
    },
    {
      "inputs": [],
      "name": "distributeIdlePot",
      "outputs": [],
      "stateMutability": "nonpayable",
      "type": "function"
    },
    {
      "inputs": [],
      "name": "finalizeRound",
      "outputs": [],
      "stateMutability": "nonpayable",
      "type": "function"
    },
    {
      "inputs": [],
      "name": "lastActionTime",
      "outputs": [
        {
          "internalType": "uint256",
          "name": "",
          "type": "uint256"
        }
      ],
      "stateMutability": "view",
      "type": "function"
    },
    {
      "inputs": [
        {
          "internalType": "uint256",
          "name": "",
          "type": "uint256"
        }
      ],
      "name": "lastHundredWinners",
      "outputs": [
        {
          "internalType": "address",
          "name": "",
          "type": "address"
        }
      ],
      "stateMutability": "view",
      "type": "function"
    },
    {
      "inputs": [],
      "name": "nextPromptId",
      "outputs": [
        {
          "internalType": "uint256",
          "name": "",
          "type": "uint256"
        }
      ],
      "stateMutability": "view",
      "type": "function"
    },
    {
      "inputs": [],
      "name": "owner",
      "outputs": [
        {
          "internalType": "address",
          "name": "",
          "type": "address"
        }
      ],
      "stateMutability": "view",
      "type": "function"
    },
    {
      "inputs": [
        {
          "internalType": "uint256",
          "name": "",
          "type": "uint256"
        }
      ],
      "name": "pendingRandomDistribution",
      "outputs": [
        {
          "internalType": "bool",
          "name": "",
          "type": "bool"
        }
      ],
      "stateMutability": "view",
      "type": "function"
    },
    {
      "inputs": [
        {
          "internalType": "string",
          "name": "_msg",
          "type": "string"
        }
      ],
      "name": "postShoutOut",
      "outputs": [],
      "stateMutability": "payable",
      "type": "function"
    },
    {
      "inputs": [],
      "name": "pot",
      "outputs": [
        {
          "internalType": "uint256",
          "name": "",
          "type": "uint256"
        }
      ],
      "stateMutability": "view",
      "type": "function"
    },
    {
      "inputs": [
        {
          "internalType": "uint256",
          "name": "",
          "type": "uint256"
        }
      ],
      "name": "prompts",
      "outputs": [
        {
          "internalType": "address",
          "name": "creator",
          "type": "address"
        },
        {
          "internalType": "string",
          "name": "text",
          "type": "string"
        },
        {
          "internalType": "uint256",
          "name": "totalVotes",
          "type": "uint256"
        },
        {
          "internalType": "uint256",
          "name": "topVoterAmount",
          "type": "uint256"
        },
        {
          "internalType": "address",
          "name": "topVoter",
          "type": "address"
        },
        {
          "internalType": "bool",
          "name": "exists",
          "type": "bool"
        }
      ],
      "stateMutability": "view",
      "type": "function"
    },
    {
      "inputs": [
        {
          "internalType": "uint256",
          "name": "requestId",
          "type": "uint256"
        },
        {
          "internalType": "uint256[]",
          "name": "randomWords",
          "type": "uint256[]"
        }
      ],
      "name": "rawFulfillRandomWords",
      "outputs": [],
      "stateMutability": "nonpayable",
      "type": "function"
    },
    {
      "inputs": [],
      "name": "roundCount",
      "outputs": [
        {
          "internalType": "uint256",
          "name": "",
          "type": "uint256"
        }
      ],
      "stateMutability": "view",
      "type": "function"
    },
    {
      "inputs": [
        {
          "internalType": "uint256",
          "name": "",
          "type": "uint256"
        }
      ],
      "name": "rounds",
      "outputs": [
        {
          "internalType": "enum MultiPromptStory.RoundState",
          "name": "state",
          "type": "uint8"
        },
        {
          "internalType": "uint256",
          "name": "submissionEndTime",
          "type": "uint256"
        },
        {
          "internalType": "uint256",
          "name": "votingEndTime",
          "type": "uint256"
        },
        {
          "internalType": "bool",
          "name": "finalized",
          "type": "bool"
        }
      ],
      "stateMutability": "view",
      "type": "function"
    },
    {
      "inputs": [
        {
          "internalType": "uint256",
          "name": "_fee",
          "type": "uint256"
        }
      ],
      "name": "setShoutOutFee",
      "outputs": [],
      "stateMutability": "nonpayable",
      "type": "function"
    },
    {
      "inputs": [],
      "name": "shoutOutFee",
      "outputs": [
        {
          "internalType": "uint256",
          "name": "",
          "type": "uint256"
        }
      ],
      "stateMutability": "view",
      "type": "function"
    },
    {
      "inputs": [
        {
          "internalType": "uint256",
          "name": "",
          "type": "uint256"
        }
      ],
      "name": "shouts",
      "outputs": [
        {
          "internalType": "address",
          "name": "sender",
          "type": "address"
        },
        {
          "internalType": "string",
          "name": "message",
          "type": "string"
        },
        {
          "internalType": "uint256",
          "name": "timestamp",
          "type": "uint256"
        }
      ],
      "stateMutability": "view",
      "type": "function"
    },
    {
      "inputs": [
        {
          "internalType": "string",
          "name": "_text",
          "type": "string"
        }
      ],
      "name": "submitPrompt",
      "outputs": [],
      "stateMutability": "payable",
      "type": "function"
    },
    {
      "inputs": [],
      "name": "subscriptionId",
      "outputs": [
        {
          "internalType": "uint64",
          "name": "",
          "type": "uint64"
        }
      ],
      "stateMutability": "view",
      "type": "function"
    },
    {
      "inputs": [
        {
          "internalType": "uint256",
          "name": "_promptId",
          "type": "uint256"
        }
      ],
      "name": "voteOnPrompt",
      "outputs": [],
      "stateMutability": "payable",
      "type": "function"
    },
    {
      "stateMutability": "payable",
      "type": "receive"
    }
  ],
  "bytecode": "0x60a0604052662386f26fc10000600955732ca8e0c643bde4c2e08ab1fa0da3401adad7734d600c60006101000a81548173ffffffffffffffffffffffffffffffffffffffff021916908373ffffffffffffffffffffffffffffffffffffffff1602179055507f79d3d8832d904592c0bf9818b621522c988bb8b0c05cdc3b15aea1b6e8db0c1560001b600d55620186a0600e60086101000a81548163ffffffff021916908363ffffffff1602179055506003600e600c6101000a81548161ffff021916908361ffff1602179055506001600e806101000a81548163ffffffff021916908363ffffffff160217905550348015620000fb57600080fd5b5060405162003db338038062003db3833981810160405281019062000121919062000365565b600c60009054906101000a900473ffffffffffffffffffffffffffffffffffffffff168073ffffffffffffffffffffffffffffffffffffffff1660808173ffffffffffffffffffffffffffffffffffffffff168152505050600c60009054906101000a900473ffffffffffffffffffffffffffffffffffffffff16600b60006101000a81548173ffffffffffffffffffffffffffffffffffffffff021916908373ffffffffffffffffffffffffffffffffffffffff16021790555080600e60006101000a81548167ffffffffffffffff021916908367ffffffffffffffff16021790555033600860006101000a81548173ffffffffffffffffffffffffffffffffffffffff021916908373ffffffffffffffffffffffffffffffffffffffff160217905550620002566200026460201b60201c565b426007819055505062000487565b600360008154809291906200027990620003d0565b91905055506000600160006003548152602001908152602001600020905060008160000160006101000a81548160ff02191690836002811115620002c257620002c16200041d565b5b0217905550612a3042620002d791906200044c565b8160010181905550612a308160010154620002f391906200044c565b816002018190555060008160040160006101000a81548160ff02191690831515021790555050565b600080fd5b600067ffffffffffffffff82169050919050565b6200033f8162000320565b81146200034b57600080fd5b50565b6000815190506200035f8162000334565b92915050565b6000602082840312156200037e576200037d6200031b565b5b60006200038e848285016200034e565b91505092915050565b7f4e487b7100000000000000000000000000000000000000000000000000000000600052601160045260246000fd5b6000819050919050565b6000620003dd82620003c6565b91507fffffffffffffffffffffffffffffffffffffffffffffffffffffffffffffffff820362000412576200041162000397565b5b600182019050919050565b7f4e487b7100000000000000000000000000000000000000000000000000000000600052602160045260246000fd5b60006200045982620003c6565b91506200046683620003c6565b925082820190508082111562000481576200048062000397565b5b92915050565b608051613909620004aa60003960008181610b5c0152610bb001526139096000f3fe6080604052600436106101855760003560e01c80635e6a645e116100d1578063a438d2081161008a578063bfb86d2811610064578063bfb86d281461054c578063d4cf9af714610568578063e1978a76146105aa578063fb7d6f4f146105d3576101a4565b8063a438d208146104df578063a74ae7411461050a578063a8c1324114610535576101a4565b80635e6a645e146103eb57806385e817b2146104165780638c65c81f146104325780638da5cb5b1461047257806391ec62af1461049d5780639cbe5efd146104b4576101a4565b80631fe543e31161013e5780632cb96da5116101185780632cb96da5146103195780634ba2363a1461035857806359429992146103835780635e5380ee146103c0576101a4565b80631fe543e31461029757806325fc666d146102c057806328b43144146102fd576101a4565b8063027634a6146101a9578063085f0316146101d457806309c1ba2e146101ff578063127f0b3f1461022a5780631d4c52cc146102555780631e82032514610280576101a4565b366101a457346004600082825461019c91906123c5565b925050819055005b600080fd5b3480156101b557600080fd5b506101be6105fc565b6040516101cb9190612408565b60405180910390f35b3480156101e057600080fd5b506101e9610602565b6040516101f69190612408565b60405180910390f35b34801561020b57600080fd5b50610214610608565b6040516102219190612446565b60405180910390f35b34801561023657600080fd5b5061023f610622565b60405161024c9190612408565b60405180910390f35b34801561026157600080fd5b5061026a610628565b6040516102779190612408565b60405180910390f35b34801561028c57600080fd5b5061029561062f565b005b3480156102a357600080fd5b506102be60048036038101906102b991906125fa565b610b5a565b005b3480156102cc57600080fd5b506102e760048036038101906102e29190612656565b610c1a565b6040516102f491906126c4565b60405180910390f35b61031760048036038101906103129190612794565b610c59565b005b34801561032557600080fd5b50610340600480360381019061033b9190612656565b610f52565b60405161034f9392919061285c565b60405180910390f35b34801561036457600080fd5b5061036d611034565b60405161037a9190612408565b60405180910390f35b34801561038f57600080fd5b506103aa60048036038101906103a59190612656565b61103a565b6040516103b791906128b5565b60405180910390f35b3480156103cc57600080fd5b506103d561105a565b6040516103e29190612408565b60405180910390f35b3480156103f757600080fd5b50610400611060565b60405161040d9190612408565b60405180910390f35b610430600480360381019061042b919061292b565b611065565b005b34801561043e57600080fd5b5061045960048036038101906104549190612656565b61122f565b60405161046994939291906129ef565b60405180910390f35b34801561047e57600080fd5b50610487611279565b60405161049491906126c4565b60405180910390f35b3480156104a957600080fd5b506104b261129f565b005b3480156104c057600080fd5b506104c96113dd565b6040516104d69190612408565b60405180910390f35b3480156104eb57600080fd5b506104f46113e3565b6040516105019190612408565b60405180910390f35b34801561051657600080fd5b5061051f6113e9565b60405161052c9190612408565b60405180910390f35b34801561054157600080fd5b5061054a6113ef565b005b61056660048036038101906105619190612656565b611491565b005b34801561057457600080fd5b5061058f600480360381019061058a9190612656565b61191a565b6040516105a196959493929190612a34565b60405180910390f35b3480156105b657600080fd5b506105d160048036038101906105cc919061292b565b611a2b565b005b3480156105df57600080fd5b506105fa60048036038101906105f59190612656565b611c28565b005b60095481565b60075481565b600e60009054906101000a900467ffffffffffffffff1681565b60055481565b6201518081565b600060016000600354815260200190815260200160002090506001600281111561065c5761065b612978565b5b8160000160009054906101000a900460ff1660028111156106805761067f612978565b5b146106c0576040517f08c379a00000000000000000000000000000000000000000000000000000000081526004016106b790612ae8565b60405180910390fd5b8060020154421015610707576040517f08c379a00000000000000000000000000000000000000000000000000000000081526004016106fe90612b54565b60405180910390fd5b8060040160009054906101000a900460ff1615610759576040517f08c379a000000000000000000000000000000000000000000000000000000000815260040161075090612bc0565b60405180910390fd5b60018160040160006101000a81548160ff02191690831515021790555060028160000160006101000a81548160ff0219169083600281111561079e5761079d612978565b5b021790555060006107b182600301611cc2565b9050600080600083815260200190815260200160002090506000816002015490506000811115610a2f5760006064601e836107ec9190612be0565b6107f69190612c51565b905060006064600f846108099190612be0565b6108139190612c51565b9050600060646005856108269190612be0565b6108309190612c51565b9050600081838561084191906123c5565b61084b91906123c5565b856108569190612c82565b90508560000160009054906101000a900473ffffffffffffffffffffffffffffffffffffffff1673ffffffffffffffffffffffffffffffffffffffff166108fc859081150290604051600060405180830381858888f193505050501580156108c2573d6000803e3d6000fd5b50600073ffffffffffffffffffffffffffffffffffffffff168660040160009054906101000a900473ffffffffffffffffffffffffffffffffffffffff1673ffffffffffffffffffffffffffffffffffffffff1614610987578560040160009054906101000a900473ffffffffffffffffffffffffffffffffffffffff1673ffffffffffffffffffffffffffffffffffffffff166108fc849081150290604051600060405180830381858888f19350505050158015610985573d6000803e3d6000fd5b505b600061099288611d44565b9050600073ffffffffffffffffffffffffffffffffffffffff168173ffffffffffffffffffffffffffffffffffffffff1614610a10578073ffffffffffffffffffffffffffffffffffffffff166108fc849081150290604051600060405180830381858888f19350505050158015610a0e573d6000803e3d6000fd5b505b8160046000828254610a2291906123c5565b9250508190555050505050505b6003547fd56a11b23d9b4d97988bc90f91ecbdd133a8efd341fd2c9f37f68d5bd34b1b818484600101604051610a66929190612daf565b60405180910390a260056000815480929190610a8190612ddf565b919050555060068260000160009054906101000a900473ffffffffffffffffffffffffffffffffffffffff169080600181540180825580915050600190039060005260206000200160009091909190916101000a81548173ffffffffffffffffffffffffffffffffffffffff021916908373ffffffffffffffffffffffffffffffffffffffff16021790555060646006805490501115610b2657610b256006611ecb565b5b60006064600554610b379190612e27565b03610b4557610b44611ff6565b5b610b4d612128565b4260078190555050505050565b7f000000000000000000000000000000000000000000000000000000000000000073ffffffffffffffffffffffffffffffffffffffff163373ffffffffffffffffffffffffffffffffffffffff1614610c0c57337f00000000000000000000000000000000000000000000000000000000000000006040517f1cf993f4000000000000000000000000000000000000000000000000000000008152600401610c03929190612e58565b60405180910390fd5b610c1682826121d6565b5050565b60068181548110610c2a57600080fd5b906000526020600020016000915054906101000a900473ffffffffffffffffffffffffffffffffffffffff1681565b6000600160006003548152602001908152602001600020905060006002811115610c8657610c85612978565b5b8160000160009054906101000a900460ff166002811115610caa57610ca9612978565b5b14610cea576040517f08c379a0000000000000000000000000000000000000000000000000000000008152600401610ce190612ecd565b60405180910390fd5b80600101544210610d30576040517f08c379a0000000000000000000000000000000000000000000000000000000008152600401610d2790612f39565b60405180910390fd5b60003411610d73576040517f08c379a0000000000000000000000000000000000000000000000000000000008152600401610d6a90612fa5565b60405180910390fd5b60006064601434610d849190612be0565b610d8e9190612c51565b9050600860009054906101000a900473ffffffffffffffffffffffffffffffffffffffff1673ffffffffffffffffffffffffffffffffffffffff166108fc829081150290604051600060405180830381858888f19350505050158015610df8573d6000803e3d6000fd5b5060008134610e079190612c82565b90508060046000828254610e1b91906123c5565b92505081905550600060026000815480929190610e3790612ddf565b91905055905060008060008381526020019081526020016000209050338160000160006101000a81548173ffffffffffffffffffffffffffffffffffffffff021916908373ffffffffffffffffffffffffffffffffffffffff16021790555085816001019081610ea7919061315c565b5060018160070160006101000a81548160ff021916908315150217905550846003018290806001815401808255809150506001900390600052602060002001600090919091909150553373ffffffffffffffffffffffffffffffffffffffff166003547f36389debae13d17813bc481dd14bc3b23fc117bf80a5379f39b0ac2eec96e9d48489604051610f3b92919061322e565b60405180910390a342600781905550505050505050565b600a8181548110610f6257600080fd5b90600052602060002090600302016000915090508060000160009054906101000a900473ffffffffffffffffffffffffffffffffffffffff1690806001018054610fab90612ce5565b80601f0160208091040260200160405190810160405280929190818152602001828054610fd790612ce5565b80156110245780601f10610ff957610100808354040283529160200191611024565b820191906000526020600020905b81548152906001019060200180831161100757829003601f168201915b5050505050908060020154905083565b60045481565b600f6020528060005260406000206000915054906101000a900460ff1681565b60025481565b601481565b6009543410156110aa576040517f08c379a00000000000000000000000000000000000000000000000000000000081526004016110a1906132aa565b60405180910390fd5b34600460008282546110bc91906123c5565b92505081905550600060405180606001604052803373ffffffffffffffffffffffffffffffffffffffff16815260200184848080601f016020809104026020016040519081016040528093929190818152602001838380828437600081840152601f19601f820116905080830192505050505050508152602001428152509050600a81908060018154018082558091505060019003906000526020600020906003020160009091909190915060008201518160000160006101000a81548173ffffffffffffffffffffffffffffffffffffffff021916908373ffffffffffffffffffffffffffffffffffffffff16021790555060208201518160010190816111c4919061315c565b506040820151816002015550503373ffffffffffffffffffffffffffffffffffffffff167fe990edd86c262053e32957d3079cff38984ce4878b24686a6d7fa35ce109f6b884843460405161121b939291906132f7565b60405180910390a242600781905550505050565b60016020528060005260406000206000915090508060000160009054906101000a900460ff16908060010154908060020154908060040160009054906101000a900460ff16905084565b600860009054906101000a900473ffffffffffffffffffffffffffffffffffffffff1681565b60006001600060035481526020019081526020016000209050600060028111156112cc576112cb612978565b5b8160000160009054906101000a900460ff1660028111156112f0576112ef612978565b5b14611330576040517f08c379a000000000000000000000000000000000000000000000000000000000815260040161132790613375565b60405180910390fd5b8060010154421015611377576040517f08c379a000000000000000000000000000000000000000000000000000000000815260040161136e906133e1565b60405180910390fd5b60018160000160006101000a81548160ff0219169083600281111561139f5761139e612978565b5b02179055506003547fff43cfc74eec3b47c51af16951e64ee5e9382a7bfcdec17486bc8caeadc6a29f60405160405180910390a24260078190555050565b60035481565b612a3081565b612a3081565b6201518060075461140091906123c5565b421015611442576040517f08c379a00000000000000000000000000000000000000000000000000000000081526004016114399061344d565b60405180910390fd5b600060045411611487576040517f08c379a000000000000000000000000000000000000000000000000000000000815260040161147e906134b9565b60405180910390fd5b61148f611ff6565b565b60006001600060035481526020019081526020016000209050600160028111156114be576114bd612978565b5b8160000160009054906101000a900460ff1660028111156114e2576114e1612978565b5b14611522576040517f08c379a000000000000000000000000000000000000000000000000000000000815260040161151990612ae8565b60405180910390fd5b80600201544210611568576040517f08c379a000000000000000000000000000000000000000000000000000000000815260040161155f90613525565b60405180910390fd5b600034116115ab576040517f08c379a00000000000000000000000000000000000000000000000000000000081526004016115a290613591565b60405180910390fd5b60008083815260200190815260200160002060070160009054906101000a900460ff1661160d576040517f08c379a0000000000000000000000000000000000000000000000000000000008152600401611604906135fd565b60405180910390fd5b6000606460143461161e9190612be0565b6116289190612c51565b9050600860009054906101000a900473ffffffffffffffffffffffffffffffffffffffff1673ffffffffffffffffffffffffffffffffffffffff166108fc829081150290604051600060405180830381858888f19350505050158015611692573d6000803e3d6000fd5b50600081346116a19190612c82565b905080600460008282546116b591906123c5565b9250508190555060008060008681526020019081526020016000209050348160020160008282546116e691906123c5565b9250508190555060008160050160003373ffffffffffffffffffffffffffffffffffffffff1673ffffffffffffffffffffffffffffffffffffffff168152602001908152602001600020540361179c5780600601339080600181540180825580915050600190039060005260206000200160009091909190916101000a81548173ffffffffffffffffffffffffffffffffffffffff021916908373ffffffffffffffffffffffffffffffffffffffff1602179055505b348160050160003373ffffffffffffffffffffffffffffffffffffffff1673ffffffffffffffffffffffffffffffffffffffff16815260200190815260200160002060008282546117ed91906123c5565b9250508190555080600301548160050160003373ffffffffffffffffffffffffffffffffffffffff1673ffffffffffffffffffffffffffffffffffffffff1681526020019081526020016000205411156118cf578060050160003373ffffffffffffffffffffffffffffffffffffffff1673ffffffffffffffffffffffffffffffffffffffff168152602001908152602001600020548160030181905550338160040160006101000a81548173ffffffffffffffffffffffffffffffffffffffff021916908373ffffffffffffffffffffffffffffffffffffffff1602179055505b846003547ff6ed5a0362706e33942c258dd867d1664e91a7653843a7c3459a857db97287ae333460405161190492919061361d565b60405180910390a3426007819055505050505050565b60006020528060005260406000206000915090508060000160009054906101000a900473ffffffffffffffffffffffffffffffffffffffff169080600101805461196390612ce5565b80601f016020809104026020016040519081016040528092919081815260200182805461198f90612ce5565b80156119dc5780601f106119b1576101008083540402835291602001916119dc565b820191906000526020600020905b8154815290600101906020018083116119bf57829003601f168201915b5050505050908060020154908060030154908060040160009054906101000a900473ffffffffffffffffffffffffffffffffffffffff16908060070160009054906101000a900460ff16905086565b600860009054906101000a900473ffffffffffffffffffffffffffffffffffffffff1673ffffffffffffffffffffffffffffffffffffffff163373ffffffffffffffffffffffffffffffffffffffff1614611abb576040517f08c379a0000000000000000000000000000000000000000000000000000000008152600401611ab290613692565b60405180910390fd5b600060405180606001604052803373ffffffffffffffffffffffffffffffffffffffff16815260200184848080601f016020809104026020016040519081016040528093929190818152602001838380828437600081840152601f19601f820116905080830192505050505050508152602001428152509050600a81908060018154018082558091505060019003906000526020600020906003020160009091909190915060008201518160000160006101000a81548173ffffffffffffffffffffffffffffffffffffffff021916908373ffffffffffffffffffffffffffffffffffffffff1602179055506020820151816001019081611bbc919061315c565b506040820151816002015550503373ffffffffffffffffffffffffffffffffffffffff167fe990edd86c262053e32957d3079cff38984ce4878b24686a6d7fa35ce109f6b884846000604051611c14939291906136ed565b60405180910390a242600781905550505050565b600860009054906101000a900473ffffffffffffffffffffffffffffffffffffffff1673ffffffffffffffffffffffffffffffffffffffff163373ffffffffffffffffffffffffffffffffffffffff1614611cb8576040517f08c379a0000000000000000000000000000000000000000000000000000000008152600401611caf90613692565b60405180910390fd5b8060098190555050565b600080600080600090505b8480549050811015611d39576000858281548110611cee57611ced61371f565b5b90600052602060002001549050600080600083815260200190815260200160002060020154905083811115611d24578093508194505b50508080611d3190612ddf565b915050611ccd565b508192505050919050565b60008060008084815260200190815260200160002090506000816006018054905003611d74576000915050611ec6565b6000600b60009054906101000a900473ffffffffffffffffffffffffffffffffffffffff1673ffffffffffffffffffffffffffffffffffffffff16635d3b1d30600d54600e60009054906101000a900467ffffffffffffffff16600e600c9054906101000a900461ffff16600e60089054906101000a900463ffffffff16600e8054906101000a900463ffffffff166040518663ffffffff1660e01b8152600401611e239594939291906137a3565b6020604051808303816000875af1158015611e42573d6000803e3d6000fd5b505050506040513d601f19601f82011682018060405250810190611e66919061380b565b90506000826006018054905082611e7d9190612e27565b9050826006018181548110611e9557611e9461371f565b5b9060005260206000200160009054906101000a900473ffffffffffffffffffffffffffffffffffffffff1693505050505b919050565b600081805490500315611ff35760005b60018280549050611eec9190612c82565b811015611fab5781600182611f0191906123c5565b81548110611f1257611f1161371f565b5b9060005260206000200160009054906101000a900473ffffffffffffffffffffffffffffffffffffffff16828281548110611f5057611f4f61371f565b5b9060005260206000200160006101000a81548173ffffffffffffffffffffffffffffffffffffffff021916908373ffffffffffffffffffffffffffffffffffffffff1602179055508080611fa390612ddf565b915050611edb565b5080805480611fbd57611fbc613838565b5b6001900381819060005260206000200160006101000a81549073ffffffffffffffffffffffffffffffffffffffff021916905590555b50565b60006006805490500315612126576000600b60009054906101000a900473ffffffffffffffffffffffffffffffffffffffff1673ffffffffffffffffffffffffffffffffffffffff16635d3b1d30600d54600e60009054906101000a900467ffffffffffffffff16600e600c9054906101000a900461ffff16600e60089054906101000a900463ffffffff16600e8054906101000a900463ffffffff166040518663ffffffff1660e01b81526004016120b39594939291906137a3565b6020604051808303816000875af11580156120d2573d6000803e3d6000fd5b505050506040513d601f19601f820116820180604052508101906120f6919061380b565b90506001600f600083815260200190815260200160002060006101000a81548160ff021916908315150217905550505b565b6003600081548092919061213b90612ddf565b91905055506000600160006003548152602001908152602001600020905060008160000160006101000a81548160ff0219169083600281111561218157612180612978565b5b0217905550612a304261219491906123c5565b8160010181905550612a3081600101546121ae91906123c5565b816002018190555060008160040160006101000a81548160ff02191690831515021790555050565b600f600083815260200190815260200160002060009054906101000a900460ff16612236576040517f08c379a000000000000000000000000000000000000000000000000000000000815260040161222d906138b3565b60405180910390fd5b60008160008151811061224c5761224b61371f565b5b6020026020010151905060006006805490501115612364576000600680549050826122779190612e27565b905060006006828154811061228f5761228e61371f565b5b9060005260206000200160009054906101000a900473ffffffffffffffffffffffffffffffffffffffff1690506000600454905060006004819055508173ffffffffffffffffffffffffffffffffffffffff166108fc829081150290604051600060405180830381858888f19350505050158015612311573d6000803e3d6000fd5b508173ffffffffffffffffffffffffffffffffffffffff167f4be214a2751d723ff57f157c7e9d9c00871ca25950d2c3a78bb6668dc8c73eb2826040516123589190612408565b60405180910390a25050505b600f600084815260200190815260200160002060006101000a81549060ff0219169055505050565b6000819050919050565b7f4e487b7100000000000000000000000000000000000000000000000000000000600052601160045260246000fd5b60006123d08261238c565b91506123db8361238c565b92508282019050808211156123f3576123f2612396565b5b92915050565b6124028161238c565b82525050565b600060208201905061241d60008301846123f9565b92915050565b600067ffffffffffffffff82169050919050565b61244081612423565b82525050565b600060208201905061245b6000830184612437565b92915050565b6000604051905090565b600080fd5b600080fd5b61247e8161238c565b811461248957600080fd5b50565b60008135905061249b81612475565b92915050565b600080fd5b6000601f19601f8301169050919050565b7f4e487b7100000000000000000000000000000000000000000000000000000000600052604160045260246000fd5b6124ef826124a6565b810181811067ffffffffffffffff8211171561250e5761250d6124b7565b5b80604052505050565b6000612521612461565b905061252d82826124e6565b919050565b600067ffffffffffffffff82111561254d5761254c6124b7565b5b602082029050602081019050919050565b600080fd5b600061257661257184612532565b612517565b905080838252602082019050602084028301858111156125995761259861255e565b5b835b818110156125c257806125ae888261248c565b84526020840193505060208101905061259b565b5050509392505050565b600082601f8301126125e1576125e06124a1565b5b81356125f1848260208601612563565b91505092915050565b600080604083850312156126115761261061246b565b5b600061261f8582860161248c565b925050602083013567ffffffffffffffff8111156126405761263f612470565b5b61264c858286016125cc565b9150509250929050565b60006020828403121561266c5761266b61246b565b5b600061267a8482850161248c565b91505092915050565b600073ffffffffffffffffffffffffffffffffffffffff82169050919050565b60006126ae82612683565b9050919050565b6126be816126a3565b82525050565b60006020820190506126d960008301846126b5565b92915050565b600080fd5b600067ffffffffffffffff8211156126ff576126fe6124b7565b5b612708826124a6565b9050602081019050919050565b82818337600083830152505050565b6000612737612732846126e4565b612517565b905082815260208101848484011115612753576127526126df565b5b61275e848285612715565b509392505050565b600082601f83011261277b5761277a6124a1565b5b813561278b848260208601612724565b91505092915050565b6000602082840312156127aa576127a961246b565b5b600082013567ffffffffffffffff8111156127c8576127c7612470565b5b6127d484828501612766565b91505092915050565b600081519050919050565b600082825260208201905092915050565b60005b838110156128175780820151818401526020810190506127fc565b60008484015250505050565b600061282e826127dd565b61283881856127e8565b93506128488185602086016127f9565b612851816124a6565b840191505092915050565b600060608201905061287160008301866126b5565b81810360208301526128838185612823565b905061289260408301846123f9565b949350505050565b60008115159050919050565b6128af8161289a565b82525050565b60006020820190506128ca60008301846128a6565b92915050565b600080fd5b60008083601f8401126128eb576128ea6124a1565b5b8235905067ffffffffffffffff811115612908576129076128d0565b5b6020830191508360018202830111156129245761292361255e565b5b9250929050565b600080602083850312156129425761294161246b565b5b600083013567ffffffffffffffff8111156129605761295f612470565b5b61296c858286016128d5565b92509250509250929050565b7f4e487b7100000000000000000000000000000000000000000000000000000000600052602160045260246000fd5b600381106129b8576129b7612978565b5b50565b60008190506129c9826129a7565b919050565b60006129d9826129bb565b9050919050565b6129e9816129ce565b82525050565b6000608082019050612a0460008301876129e0565b612a1160208301866123f9565b612a1e60408301856123f9565b612a2b60608301846128a6565b95945050505050565b600060c082019050612a4960008301896126b5565b8181036020830152612a5b8188612823565b9050612a6a60408301876123f9565b612a7760608301866123f9565b612a8460808301856126b5565b612a9160a08301846128a6565b979650505050505050565b7f4e6f7420696e20766f74696e6720706861736500000000000000000000000000600082015250565b6000612ad26013836127e8565b9150612add82612a9c565b602082019050919050565b60006020820190508181036000830152612b0181612ac5565b9050919050565b7f566f74696e67206e6f7420656e64656400000000000000000000000000000000600082015250565b6000612b3e6010836127e8565b9150612b4982612b08565b602082019050919050565b60006020820190508181036000830152612b6d81612b31565b9050919050565b7f416c72656164792066696e616c697a6564000000000000000000000000000000600082015250565b6000612baa6011836127e8565b9150612bb582612b74565b602082019050919050565b60006020820190508181036000830152612bd981612b9d565b9050919050565b6000612beb8261238c565b9150612bf68361238c565b9250828202612c048161238c565b91508282048414831517612c1b57612c1a612396565b5b5092915050565b7f4e487b7100000000000000000000000000000000000000000000000000000000600052601260045260246000fd5b6000612c5c8261238c565b9150612c678361238c565b925082612c7757612c76612c22565b5b828204905092915050565b6000612c8d8261238c565b9150612c988361238c565b9250828203905081811115612cb057612caf612396565b5b92915050565b7f4e487b7100000000000000000000000000000000000000000000000000000000600052602260045260246000fd5b60006002820490506001821680612cfd57607f821691505b602082108103612d1057612d0f612cb6565b5b50919050565b60008190508160005260206000209050919050565b60008154612d3881612ce5565b612d4281866127e8565b94506001821660008114612d5d5760018114612d7357612da6565b60ff198316865281151560200286019350612da6565b612d7c85612d16565b60005b83811015612d9e57815481890152600182019150602081019050612d7f565b808801955050505b50505092915050565b6000604082019050612dc460008301856123f9565b8181036020830152612dd68184612d2b565b90509392505050565b6000612dea8261238c565b91507fffffffffffffffffffffffffffffffffffffffffffffffffffffffffffffffff8203612e1c57612e1b612396565b5b600182019050919050565b6000612e328261238c565b9150612e3d8361238c565b925082612e4d57612e4c612c22565b5b828206905092915050565b6000604082019050612e6d60008301856126b5565b612e7a60208301846126b5565b9392505050565b7f4e6f74207375626d697373696f6e207068617365000000000000000000000000600082015250565b6000612eb76014836127e8565b9150612ec282612e81565b602082019050919050565b60006020820190508181036000830152612ee681612eaa565b9050919050565b7f5375626d697373696f6e2074696d6520656e6465640000000000000000000000600082015250565b6000612f236015836127e8565b9150612f2e82612eed565b602082019050919050565b60006020820190508181036000830152612f5281612f16565b9050919050565b7f4d7573742073656e642045544820776974682070726f6d707400000000000000600082015250565b6000612f8f6019836127e8565b9150612f9a82612f59565b602082019050919050565b60006020820190508181036000830152612fbe81612f82565b9050919050565b60006020601f8301049050919050565b600082821b905092915050565b6000600883026130127fffffffffffffffffffffffffffffffffffffffffffffffffffffffffffffffff82612fd5565b61301c8683612fd5565b95508019841693508086168417925050509392505050565b6000819050919050565b600061305961305461304f8461238c565b613034565b61238c565b9050919050565b6000819050919050565b6130738361303e565b61308761307f82613060565b848454612fe2565b825550505050565b600090565b61309c61308f565b6130a781848461306a565b505050565b5b818110156130cb576130c0600082613094565b6001810190506130ad565b5050565b601f821115613110576130e181612d16565b6130ea84612fc5565b810160208510156130f9578190505b61310d61310585612fc5565b8301826130ac565b50505b505050565b600082821c905092915050565b600061313360001984600802613115565b1980831691505092915050565b600061314c8383613122565b9150826002028217905092915050565b613165826127dd565b67ffffffffffffffff81111561317e5761317d6124b7565b5b6131888254612ce5565b6131938282856130cf565b600060209050601f8311600181146131c657600084156131b4578287015190505b6131be8582613140565b865550613226565b601f1984166131d486612d16565b60005b828110156131fc578489015182556001820191506020850194506020810190506131d7565b868310156132195784890151613215601f891682613122565b8355505b6001600288020188555050505b505050505050565b600060408201905061324360008301856123f9565b81810360208301526132558184612823565b90509392505050565b7f496e73756666696369656e742073686f75744f75742066656500000000000000600082015250565b60006132946019836127e8565b915061329f8261325e565b602082019050919050565b600060208201905081810360008301526132c381613287565b9050919050565b60006132d683856127e8565b93506132e3838584612715565b6132ec836124a6565b840190509392505050565b600060408201905081810360008301526133128185876132ca565b905061332160208301846123f9565b949350505050565b7f526f756e64206e6f7420696e207375626d697373696f6e207068617365000000600082015250565b600061335f601d836127e8565b915061336a82613329565b602082019050919050565b6000602082019050818103600083015261338e81613352565b9050919050565b7f5375626d697373696f6e206e6f7420656e646564207965740000000000000000600082015250565b60006133cb6018836127e8565b91506133d682613395565b602082019050919050565b600060208201905081810360008301526133fa816133be565b9050919050565b7f4e6f7420656e6f7567682069646c652074696d65000000000000000000000000600082015250565b60006134376014836127e8565b915061344282613401565b602082019050919050565b600060208201905081810360008301526134668161342a565b9050919050565b7f4e6f7468696e6720696e20706f74000000000000000000000000000000000000600082015250565b60006134a3600e836127e8565b91506134ae8261346d565b602082019050919050565b600060208201905081810360008301526134d281613496565b9050919050565b7f566f74696e6720656e6465640000000000000000000000000000000000000000600082015250565b600061350f600c836127e8565b915061351a826134d9565b602082019050919050565b6000602082019050818103600083015261353e81613502565b9050919050565b7f4d7573742073656e642045544820746f20766f74650000000000000000000000600082015250565b600061357b6015836127e8565b915061358682613545565b602082019050919050565b600060208201905081810360008301526135aa8161356e565b9050919050565b7f50726f6d707420646f65736e2774206578697374000000000000000000000000600082015250565b60006135e76014836127e8565b91506135f2826135b1565b602082019050919050565b60006020820190508181036000830152613616816135da565b9050919050565b600060408201905061363260008301856126b5565b61363f60208301846123f9565b9392505050565b7f4e6f7420746865206f776e657200000000000000000000000000000000000000600082015250565b600061367c600d836127e8565b915061368782613646565b602082019050919050565b600060208201905081810360008301526136ab8161366f565b9050919050565b6000819050919050565b60006136d76136d26136cd846136b2565b613034565b61238c565b9050919050565b6136e7816136bc565b82525050565b600060408201905081810360008301526137088185876132ca565b905061371760208301846136de565b949350505050565b7f4e487b7100000000000000000000000000000000000000000000000000000000600052603260045260246000fd5b6000819050919050565b6137618161374e565b82525050565b600061ffff82169050919050565b61377e81613767565b82525050565b600063ffffffff82169050919050565b61379d81613784565b82525050565b600060a0820190506137b86000830188613758565b6137c56020830187612437565b6137d26040830186613775565b6137df6060830185613794565b6137ec6080830184613794565b9695505050505050565b60008151905061380581612475565b92915050565b6000602082840312156138215761382061246b565b5b600061382f848285016137f6565b91505092915050565b7f4e487b7100000000000000000000000000000000000000000000000000000000600052603160045260246000fd5b7f4e6f2070656e64696e6720726571756573740000000000000000000000000000600082015250565b600061389d6012836127e8565b91506138a882613867565b602082019050919050565b600060208201905081810360008301526138cc81613890565b905091905056fea264697066735822122046fcd621a60d47668f1cf87577e6009fc977f62c5b8297da22b805cc436bcd2764736f6c63430008110033",
  "linkReferences": {},
  "deployedLinkReferences": {}
}