{
  "_format": "hh-sol-artifact-1",
  "contractName": "MultiPromptStory",
  "sourceName": "contracts/MultiPromptStoryVRF.sol",
  "abi": [
    {
      "inputs": [
        {
          "internalType": "uint64",
          "name": "_subscriptionId",
          "type": "uint64"
        }
      ],
      "stateMutability": "nonpayable",
      "type": "constructor"
    },
    {
      "inputs": [
        {
          "internalType": "address",
          "name": "have",
          "type": "address"
        },
        {
          "internalType": "address",
          "name": "want",
          "type": "address"
        }
      ],
      "name": "OnlyCoordinatorCanFulfill",
      "type": "error"
    },
    {
      "anonymous": false,
      "inputs": [
        {
          "indexed": false,
          "internalType": "address",
          "name": "winner",
          "type": "address"
        },
        {
          "indexed": false,
          "internalType": "uint256",
          "name": "amount",
          "type": "uint256"
        }
      ],
      "name": "PotDistributed",
      "type": "event"
    },
    {
      "anonymous": false,
      "inputs": [
        {
          "indexed": false,
          "internalType": "uint256",
          "name": "requestId",
          "type": "uint256"
        }
      ],
      "name": "RandomnessRequested",
      "type": "event"
    },
    {
      "inputs": [],
      "name": "IDLE_DURATION",
      "outputs": [
        {
          "internalType": "uint256",
          "name": "",
          "type": "uint256"
        }
      ],
      "stateMutability": "view",
      "type": "function"
    },
    {
      "inputs": [],
      "name": "RANDOM_ROUND_INTERVAL",
      "outputs": [
        {
          "internalType": "uint256",
          "name": "",
          "type": "uint256"
        }
      ],
      "stateMutability": "view",
      "type": "function"
    },
    {
      "inputs": [],
      "name": "SUBMISSION_DURATION",
      "outputs": [
        {
          "internalType": "uint256",
          "name": "",
          "type": "uint256"
        }
      ],
      "stateMutability": "view",
      "type": "function"
    },
    {
      "inputs": [],
      "name": "VOTING_DURATION",
      "outputs": [
        {
          "internalType": "uint256",
          "name": "",
          "type": "uint256"
        }
      ],
      "stateMutability": "view",
      "type": "function"
    },
    {
      "inputs": [],
      "name": "checkAndTriggerIdleDistribution",
      "outputs": [],
      "stateMutability": "nonpayable",
      "type": "function"
    },
    {
      "inputs": [],
      "name": "distributeIdlePot",
      "outputs": [],
      "stateMutability": "nonpayable",
      "type": "function"
    },
    {
      "inputs": [],
      "name": "lastActionTime",
      "outputs": [
        {
          "internalType": "uint256",
          "name": "",
          "type": "uint256"
        }
      ],
      "stateMutability": "view",
      "type": "function"
    },
    {
      "inputs": [
        {
          "internalType": "uint256",
          "name": "",
          "type": "uint256"
        }
      ],
      "name": "lastHundredWinners",
      "outputs": [
        {
          "internalType": "address",
          "name": "",
          "type": "address"
        }
      ],
      "stateMutability": "view",
      "type": "function"
    },
    {
      "inputs": [
        {
          "internalType": "uint256",
          "name": "",
          "type": "uint256"
        }
      ],
      "name": "pendingRandomness",
      "outputs": [
        {
          "internalType": "bool",
          "name": "",
          "type": "bool"
        }
      ],
      "stateMutability": "view",
      "type": "function"
    },
    {
      "inputs": [],
      "name": "pot",
      "outputs": [
        {
          "internalType": "uint256",
          "name": "",
          "type": "uint256"
        }
      ],
      "stateMutability": "view",
      "type": "function"
    },
    {
      "inputs": [
        {
          "internalType": "uint256",
          "name": "",
          "type": "uint256"
        }
      ],
      "name": "randomResults",
      "outputs": [
        {
          "internalType": "uint256",
          "name": "",
          "type": "uint256"
        }
      ],
      "stateMutability": "view",
      "type": "function"
    },
    {
      "inputs": [
        {
          "internalType": "uint256",
          "name": "requestId",
          "type": "uint256"
        },
        {
          "internalType": "uint256[]",
          "name": "randomWords",
          "type": "uint256[]"
        }
      ],
      "name": "rawFulfillRandomWords",
      "outputs": [],
      "stateMutability": "nonpayable",
      "type": "function"
    },
    {
      "inputs": [
        {
          "internalType": "uint256",
          "name": "",
          "type": "uint256"
        }
      ],
      "name": "requestIdToRound",
      "outputs": [
        {
          "internalType": "address",
          "name": "",
          "type": "address"
        }
      ],
      "stateMutability": "view",
      "type": "function"
    }
  ],
  "bytecode": "0x60a0604052732ca8e0c643bde4c2e08ab1fa0da3401adad7734d600160006101000a81548173ffffffffffffffffffffffffffffffffffffffff021916908373ffffffffffffffffffffffffffffffffffffffff1602179055507f79d3d8832d904592c0bf9818b621522c988bb8b0c05cdc3b15aea1b6e8db0c1560001b600255620186a0600360086101000a81548163ffffffff021916908363ffffffff160217905550600380600c6101000a81548161ffff021916908361ffff16021790555060016003600e6101000a81548163ffffffff021916908363ffffffff1602179055503480156100ef57600080fd5b5060405161126a38038061126a8339818101604052810190610111919061023f565b600160009054906101000a900473ffffffffffffffffffffffffffffffffffffffff168073ffffffffffffffffffffffffffffffffffffffff1660808173ffffffffffffffffffffffffffffffffffffffff168152505050600160009054906101000a900473ffffffffffffffffffffffffffffffffffffffff166000806101000a81548173ffffffffffffffffffffffffffffffffffffffff021916908373ffffffffffffffffffffffffffffffffffffffff16021790555080600360006101000a81548167ffffffffffffffff021916908367ffffffffffffffff1602179055505061026c565b600080fd5b600067ffffffffffffffff82169050919050565b61021c816101ff565b811461022757600080fd5b50565b60008151905061023981610213565b92915050565b600060208284031215610255576102546101fa565b5b60006102638482850161022a565b91505092915050565b608051610fdc61028e6000396000818161028701526102db0152610fdc6000f3fe608060405234801561001057600080fd5b50600436106100cf5760003560e01c80634ba2363a1161008c5780639030ca90116100665780639030ca9014610214578063a438d20814610232578063a74ae74114610250578063a8c132411461026e576100cf565b80634ba2363a146101bc5780637272ca07146101da57806386ec1127146101e4576100cf565b8063085f0316146100d45780631d4c52cc146100f25780631fe543e314610110578063219be1141461012c57806325fc666d1461015c5780634077604b1461018c575b600080fd5b6100dc610278565b6040516100e99190610931565b60405180910390f35b6100fa61027e565b6040516101079190610931565b60405180910390f35b61012a60048036038101906101259190610ae5565b610285565b005b61014660048036038101906101419190610b41565b610345565b6040516101539190610931565b60405180910390f35b61017660048036038101906101719190610b41565b61035d565b6040516101839190610baf565b60405180910390f35b6101a660048036038101906101a19190610b41565b61039c565b6040516101b39190610baf565b60405180910390f35b6101c46103cf565b6040516101d19190610931565b60405180910390f35b6101e26103d5565b005b6101fe60048036038101906101f99190610b41565b610449565b60405161020b9190610be5565b60405180910390f35b61021c610469565b6040516102299190610931565b60405180910390f35b61023a61046e565b6040516102479190610931565b60405180910390f35b610258610474565b6040516102659190610931565b60405180910390f35b61027661047a565b005b60065481565b6201518081565b7f000000000000000000000000000000000000000000000000000000000000000073ffffffffffffffffffffffffffffffffffffffff163373ffffffffffffffffffffffffffffffffffffffff161461033757337f00000000000000000000000000000000000000000000000000000000000000006040517f1cf993f400000000000000000000000000000000000000000000000000000000815260040161032e929190610c00565b60405180910390fd5b610341828261058e565b5050565b60096020528060005260406000206000915090505481565b6007818154811061036d57600080fd5b906000526020600020016000915054906101000a900473ffffffffffffffffffffffffffffffffffffffff1681565b60046020528060005260406000206000915054906101000a900473ffffffffffffffffffffffffffffffffffffffff1681565b60055481565b62015180600654426103e79190610c58565b1015610428576040517f08c379a000000000000000000000000000000000000000000000000000000000815260040161041f90610ce9565b60405180910390fd5b600060078054905011156104405761043e61063f565b505b42600681905550565b60086020528060005260406000206000915054906101000a900460ff1681565b606481565b612a3081565b612a3081565b620151806006544261048c9190610c58565b10156104cd576040517f08c379a00000000000000000000000000000000000000000000000000000000081526004016104c490610ce9565b60405180910390fd5b600060078054905011610515576040517f08c379a000000000000000000000000000000000000000000000000000000000815260040161050c90610d55565b60405180910390fd5b600061051f61063f565b905060016008600083815260200190815260200160002060006101000a81548160ff0219169083151502179055507f9ac10fb18c93d33ad7b0a941897aef048d0f8d30756684e82b4552ba12764d458160405161057c9190610931565b60405180910390a14260068190555050565b6008600083815260200190815260200160002060009054906101000a900460ff166105ee576040517f08c379a00000000000000000000000000000000000000000000000000000000081526004016105e590610dc1565b60405180910390fd5b6008600083815260200190815260200160002060006101000a81549060ff021916905560008160008151811061062757610626610de1565b5b6020026020010151905061063a81610789565b505050565b60008060009054906101000a900473ffffffffffffffffffffffffffffffffffffffff1673ffffffffffffffffffffffffffffffffffffffff16635d3b1d30600254600360009054906101000a900467ffffffffffffffff166003600c9054906101000a900461ffff16600360089054906101000a900463ffffffff166003600e9054906101000a900463ffffffff166040518663ffffffff1660e01b81526004016106ef959493929190610e88565b6020604051808303816000875af115801561070e573d6000803e3d6000fd5b505050506040513d601f19601f820116820180604052508101906107329190610ef0565b9050336004600083815260200190815260200160002060006101000a81548173ffffffffffffffffffffffffffffffffffffffff021916908373ffffffffffffffffffffffffffffffffffffffff16021790555090565b6000600780549050116107d1576040517f08c379a00000000000000000000000000000000000000000000000000000000081526004016107c890610d55565b60405180910390fd5b6000600780549050826107e49190610f4c565b90506000600782815481106107fc576107fb610de1565b5b9060005260206000200160009054906101000a900473ffffffffffffffffffffffffffffffffffffffff1690506000600554905060006005819055508173ffffffffffffffffffffffffffffffffffffffff166108fc829081150290604051600060405180830381858888f1935050505015801561087e573d6000803e3d6000fd5b507fbba9ec4eb301fb6bcf0c5ff82886512d7c75d972b649e927c9e3adee76c4a2ef82826040516108b0929190610f7d565b60405180910390a16064600780549050106108d457600760006108d391906108da565b5b50505050565b50805460008255906000526020600020908101906108f891906108fb565b50565b5b808211156109145760008160009055506001016108fc565b5090565b6000819050919050565b61092b81610918565b82525050565b60006020820190506109466000830184610922565b92915050565b6000604051905090565b600080fd5b600080fd5b61096981610918565b811461097457600080fd5b50565b60008135905061098681610960565b92915050565b600080fd5b6000601f19601f8301169050919050565b7f4e487b7100000000000000000000000000000000000000000000000000000000600052604160045260246000fd5b6109da82610991565b810181811067ffffffffffffffff821117156109f9576109f86109a2565b5b80604052505050565b6000610a0c61094c565b9050610a1882826109d1565b919050565b600067ffffffffffffffff821115610a3857610a376109a2565b5b602082029050602081019050919050565b600080fd5b6000610a61610a5c84610a1d565b610a02565b90508083825260208201905060208402830185811115610a8457610a83610a49565b5b835b81811015610aad5780610a998882610977565b845260208401935050602081019050610a86565b5050509392505050565b600082601f830112610acc57610acb61098c565b5b8135610adc848260208601610a4e565b91505092915050565b60008060408385031215610afc57610afb610956565b5b6000610b0a85828601610977565b925050602083013567ffffffffffffffff811115610b2b57610b2a61095b565b5b610b3785828601610ab7565b9150509250929050565b600060208284031215610b5757610b56610956565b5b6000610b6584828501610977565b91505092915050565b600073ffffffffffffffffffffffffffffffffffffffff82169050919050565b6000610b9982610b6e565b9050919050565b610ba981610b8e565b82525050565b6000602082019050610bc46000830184610ba0565b92915050565b60008115159050919050565b610bdf81610bca565b82525050565b6000602082019050610bfa6000830184610bd6565b92915050565b6000604082019050610c156000830185610ba0565b610c226020830184610ba0565b9392505050565b7f4e487b7100000000000000000000000000000000000000000000000000000000600052601160045260246000fd5b6000610c6382610918565b9150610c6e83610918565b9250828203905081811115610c8657610c85610c29565b5b92915050565b600082825260208201905092915050565b7f4e6f742069646c65206c6f6e6720656e6f756768000000000000000000000000600082015250565b6000610cd3601483610c8c565b9150610cde82610c9d565b602082019050919050565b60006020820190508181036000830152610d0281610cc6565b9050919050565b7f4e6f2077696e6e65727320746f206469737472696275746520746f0000000000600082015250565b6000610d3f601b83610c8c565b9150610d4a82610d09565b602082019050919050565b60006020820190508181036000830152610d6e81610d32565b9050919050565b7f52657175657374206e6f7420666f756e64000000000000000000000000000000600082015250565b6000610dab601183610c8c565b9150610db682610d75565b602082019050919050565b60006020820190508181036000830152610dda81610d9e565b9050919050565b7f4e487b7100000000000000000000000000000000000000000000000000000000600052603260045260246000fd5b6000819050919050565b610e2381610e10565b82525050565b600067ffffffffffffffff82169050919050565b610e4681610e29565b82525050565b600061ffff82169050919050565b610e6381610e4c565b82525050565b600063ffffffff82169050919050565b610e8281610e69565b82525050565b600060a082019050610e9d6000830188610e1a565b610eaa6020830187610e3d565b610eb76040830186610e5a565b610ec46060830185610e79565b610ed16080830184610e79565b9695505050505050565b600081519050610eea81610960565b92915050565b600060208284031215610f0657610f05610956565b5b6000610f1484828501610edb565b91505092915050565b7f4e487b7100000000000000000000000000000000000000000000000000000000600052601260045260246000fd5b6000610f5782610918565b9150610f6283610918565b925082610f7257610f71610f1d565b5b828206905092915050565b6000604082019050610f926000830185610ba0565b610f9f6020830184610922565b939250505056fea2646970667358221220365665fdfe0a97f700ee324a74346100fc36008d7799ed0dd5b8876954aa688064736f6c63430008110033",
  "linkReferences": {},
  "deployedLinkReferences": {}
}