{
  "_format": "hh-sol-artifact-1",
  "contractName": "MockVRFCoordinator",
  "sourceName": "contracts/MockVRFCoordinator.sol",
  "abi": [
    {
      "anonymous": false,
      "inputs": [
        {
          "indexed": true,
          "internalType": "uint256",
          "name": "requestId",
          "type": "uint256"
        },
        {
          "indexed": false,
          "internalType": "uint256[]",
          "name": "randomWords",
          "type": "uint256[]"
        }
      ],
      "name": "RandomWordsFulfilled",
      "type": "event"
    },
    {
      "anonymous": false,
      "inputs": [
        {
          "indexed": true,
          "internalType": "uint256",
          "name": "requestId",
          "type": "uint256"
        },
        {
          "indexed": true,
          "internalType": "address",
          "name": "consumer",
          "type": "address"
        }
      ],
      "name": "RandomWordsRequested",
      "type": "event"
    },
    {
      "inputs": [
        {
          "internalType": "uint256",
          "name": "_requestId",
          "type": "uint256"
        },
        {
          "internalType": "address",
          "name": "consumer",
          "type": "address"
        }
      ],
      "name": "fulfillRandomWords",
      "outputs": [],
      "stateMutability": "nonpayable",
      "type": "function"
    },
    {
      "inputs": [],
      "name": "mockRandomNumber",
      "outputs": [
        {
          "internalType": "uint256",
          "name": "",
          "type": "uint256"
        }
      ],
      "stateMutability": "view",
      "type": "function"
    },
    {
      "inputs": [],
      "name": "requestCounter",
      "outputs": [
        {
          "internalType": "uint256",
          "name": "",
          "type": "uint256"
        }
      ],
      "stateMutability": "view",
      "type": "function"
    },
    {
      "inputs": [
        {
          "internalType": "bytes32",
          "name": "",
          "type": "bytes32"
        },
        {
          "internalType": "uint64",
          "name": "",
          "type": "uint64"
        },
        {
          "internalType": "uint16",
          "name": "",
          "type": "uint16"
        },
        {
          "internalType": "uint32",
          "name": "",
          "type": "uint32"
        },
        {
          "internalType": "uint32",
          "name": "",
          "type": "uint32"
        }
      ],
      "name": "requestRandomWords",
      "outputs": [
        {
          "internalType": "uint256",
          "name": "",
          "type": "uint256"
        }
      ],
      "stateMutability": "nonpayable",
      "type": "function"
    },
    {
      "inputs": [
        {
          "internalType": "uint256",
          "name": "_mockRandomNumber",
          "type": "uint256"
        }
      ],
      "name": "setMockRandomNumber",
      "outputs": [],
      "stateMutability": "nonpayable",
      "type": "function"
    }
  ],
  "bytecode": "0x6080604052600160005561303960025534801561001b57600080fd5b506107648061002b6000396000f3fe608060405234801561001057600080fd5b50600436106100575760003560e01c80630b0c293d1461005c5780635d3b1d3014610078578063808974ff146100a85780638123cb67146100c4578063973a814e146100e2575b600080fd5b610076600480360381019061007191906102ed565b610100565b005b610092600480360381019061008d9190610406565b61010a565b60405161009f9190610490565b60405180910390f35b6100c260048036038101906100bd9190610509565b61018b565b005b6100cc6102a6565b6040516100d99190610490565b60405180910390f35b6100ea6102ac565b6040516100f79190610490565b60405180910390f35b8060028190555050565b60006001600081548092919061011f90610578565b91905055503373ffffffffffffffffffffffffffffffffffffffff166000547f5afc92f47019f6f981dbe48fba0d8bc10298b161505d2ead5ad4b975bfde77f460405160405180910390a360008081548092919061017c90610578565b91905055905095945050505050565b6000600167ffffffffffffffff8111156101a8576101a76105c0565b5b6040519080825280602002602001820160405280156101d65781602001602082028036833780820191505090505b509050600254816000815181106101f0576101ef6105ef565b5b602002602001018181525050827ff45ee76115b0ed5f4ebe293254449fbe612bad36a53d52b87b6a40687adc48de8260405161022c91906106dc565b60405180910390a28173ffffffffffffffffffffffffffffffffffffffff16631fe543e384836040518363ffffffff1660e01b815260040161026f9291906106fe565b600060405180830381600087803b15801561028957600080fd5b505af115801561029d573d6000803e3d6000fd5b50505050505050565b60025481565b60015481565b600080fd5b6000819050919050565b6102ca816102b7565b81146102d557600080fd5b50565b6000813590506102e7816102c1565b92915050565b600060208284031215610303576103026102b2565b5b6000610311848285016102d8565b91505092915050565b6000819050919050565b61032d8161031a565b811461033857600080fd5b50565b60008135905061034a81610324565b92915050565b600067ffffffffffffffff82169050919050565b61036d81610350565b811461037857600080fd5b50565b60008135905061038a81610364565b92915050565b600061ffff82169050919050565b6103a781610390565b81146103b257600080fd5b50565b6000813590506103c48161039e565b92915050565b600063ffffffff82169050919050565b6103e3816103ca565b81146103ee57600080fd5b50565b600081359050610400816103da565b92915050565b600080600080600060a08688031215610422576104216102b2565b5b60006104308882890161033b565b95505060206104418882890161037b565b9450506040610452888289016103b5565b9350506060610463888289016103f1565b9250506080610474888289016103f1565b9150509295509295909350565b61048a816102b7565b82525050565b60006020820190506104a56000830184610481565b92915050565b600073ffffffffffffffffffffffffffffffffffffffff82169050919050565b60006104d6826104ab565b9050919050565b6104e6816104cb565b81146104f157600080fd5b50565b600081359050610503816104dd565b92915050565b600080604083850312156105205761051f6102b2565b5b600061052e858286016102d8565b925050602061053f858286016104f4565b9150509250929050565b7f4e487b7100000000000000000000000000000000000000000000000000000000600052601160045260246000fd5b6000610583826102b7565b91507fffffffffffffffffffffffffffffffffffffffffffffffffffffffffffffffff82036105b5576105b4610549565b5b600182019050919050565b7f4e487b7100000000000000000000000000000000000000000000000000000000600052604160045260246000fd5b7f4e487b7100000000000000000000000000000000000000000000000000000000600052603260045260246000fd5b600081519050919050565b600082825260208201905092915050565b6000819050602082019050919050565b610653816102b7565b82525050565b6000610665838361064a565b60208301905092915050565b6000602082019050919050565b60006106898261061e565b6106938185610629565b935061069e8361063a565b8060005b838110156106cf5781516106b68882610659565b97506106c183610671565b9250506001810190506106a2565b5085935050505092915050565b600060208201905081810360008301526106f6818461067e565b905092915050565b60006040820190506107136000830185610481565b8181036020830152610725818461067e565b9050939250505056fea26469706673582212200e0435dc4ba98206918dece82da5fbfa663f8e7c4c796ce5faf8728c46ea6cb264736f6c63430008110033",
  "linkReferences": {},
  "deployedLinkReferences": {}
}