{
  "_format": "hh-sol-artifact-1",
  "contractName": "MockVRFCoordinator",
  "sourceName": "contracts/MockVRFCoordinator.sol",
  "abi": [
    {
      "anonymous": false,
      "inputs": [
        {
          "indexed": false,
          "internalType": "bool",
          "name": "success",
          "type": "bool"
        },
        {
          "indexed": false,
          "internalType": "bytes",
          "name": "data",
          "type": "bytes"
        }
      ],
      "name": "DebugCallback",
      "type": "event"
    },
    {
      "anonymous": false,
      "inputs": [
        {
          "indexed": false,
          "internalType": "uint256",
          "name": "requestId",
          "type": "uint256"
        },
        {
          "indexed": false,
          "internalType": "address",
          "name": "consumer",
          "type": "address"
        },
        {
          "indexed": false,
          "internalType": "uint256[]",
          "name": "words",
          "type": "uint256[]"
        }
      ],
      "name": "DebugFulfill",
      "type": "event"
    },
    {
      "anonymous": false,
      "inputs": [
        {
          "indexed": true,
          "internalType": "uint256",
          "name": "requestId",
          "type": "uint256"
        },
        {
          "indexed": false,
          "internalType": "uint256[]",
          "name": "randomWords",
          "type": "uint256[]"
        },
        {
          "indexed": false,
          "internalType": "address",
          "name": "consumer",
          "type": "address"
        }
      ],
      "name": "RandomWordsFulfilled",
      "type": "event"
    },
    {
      "anonymous": false,
      "inputs": [
        {
          "indexed": true,
          "internalType": "uint256",
          "name": "requestId",
          "type": "uint256"
        },
        {
          "indexed": true,
          "internalType": "address",
          "name": "consumer",
          "type": "address"
        }
      ],
      "name": "RandomWordsRequested",
      "type": "event"
    },
    {
      "inputs": [
        {
          "internalType": "uint256",
          "name": "",
          "type": "uint256"
        }
      ],
      "name": "consumers",
      "outputs": [
        {
          "internalType": "address",
          "name": "",
          "type": "address"
        }
      ],
      "stateMutability": "view",
      "type": "function"
    },
    {
      "inputs": [
        {
          "internalType": "uint256",
          "name": "_requestId",
          "type": "uint256"
        },
        {
          "internalType": "address",
          "name": "consumer",
          "type": "address"
        }
      ],
      "name": "fulfillRandomWords",
      "outputs": [],
      "stateMutability": "nonpayable",
      "type": "function"
    },
    {
      "inputs": [],
      "name": "mockRandomNumber",
      "outputs": [
        {
          "internalType": "uint256",
          "name": "",
          "type": "uint256"
        }
      ],
      "stateMutability": "view",
      "type": "function"
    },
    {
      "inputs": [],
      "name": "requestCounter",
      "outputs": [
        {
          "internalType": "uint256",
          "name": "",
          "type": "uint256"
        }
      ],
      "stateMutability": "view",
      "type": "function"
    },
    {
      "inputs": [
        {
          "internalType": "bytes32",
          "name": "",
          "type": "bytes32"
        },
        {
          "internalType": "uint64",
          "name": "",
          "type": "uint64"
        },
        {
          "internalType": "uint16",
          "name": "",
          "type": "uint16"
        },
        {
          "internalType": "uint32",
          "name": "",
          "type": "uint32"
        },
        {
          "internalType": "uint32",
          "name": "",
          "type": "uint32"
        }
      ],
      "name": "requestRandomWords",
      "outputs": [
        {
          "internalType": "uint256",
          "name": "",
          "type": "uint256"
        }
      ],
      "stateMutability": "nonpayable",
      "type": "function"
    },
    {
      "inputs": [
        {
          "internalType": "uint256",
          "name": "_mockRandomNumber",
          "type": "uint256"
        }
      ],
      "name": "setMockRandomNumber",
      "outputs": [],
      "stateMutability": "nonpayable",
      "type": "function"
    }
  ],
  "bytecode": "0x6080604052600160005561303960025534801561001b57600080fd5b50610a8b8061002b6000396000f3fe608060405234801561001057600080fd5b50600436106100625760003560e01c80630b0c293d146100675780634651ed3d146100835780635d3b1d30146100b3578063808974ff146100e35780638123cb67146100ff578063973a814e1461011d575b600080fd5b610081600480360381019061007c9190610521565b61013b565b005b61009d60048036038101906100989190610521565b610145565b6040516100aa919061058f565b60405180910390f35b6100cd60048036038101906100c89190610696565b610178565b6040516100da9190610720565b60405180910390f35b6100fd60048036038101906100f89190610767565b610252565b005b610107610460565b6040516101149190610720565b60405180910390f35b610125610466565b6040516101329190610720565b60405180910390f35b8060028190555050565b60036020528060005260406000206000915054906101000a900473ffffffffffffffffffffffffffffffffffffffff1681565b600080600054905060016000815480929190610193906107d6565b9190505550336003600083815260200190815260200160002060006101000a81548173ffffffffffffffffffffffffffffffffffffffff021916908373ffffffffffffffffffffffffffffffffffffffff1602179055503373ffffffffffffffffffffffffffffffffffffffff16817f5afc92f47019f6f981dbe48fba0d8bc10298b161505d2ead5ad4b975bfde77f460405160405180910390a3600080815480929190610240906107d6565b91905055508091505095945050505050565b8073ffffffffffffffffffffffffffffffffffffffff166003600084815260200190815260200160002060009054906101000a900473ffffffffffffffffffffffffffffffffffffffff1673ffffffffffffffffffffffffffffffffffffffff16146102f3576040517f08c379a00000000000000000000000000000000000000000000000000000000081526004016102ea9061087b565b60405180910390fd5b60006102fd61046c565b90507f61ab87f4b83e81f4354dc8d462cf7daf1abebb85baecfa965f618c6c7e5bdf5283838360405161033293929190610959565b60405180910390a18173ffffffffffffffffffffffffffffffffffffffff16837f5afc92f47019f6f981dbe48fba0d8bc10298b161505d2ead5ad4b975bfde77f460405160405180910390a38173ffffffffffffffffffffffffffffffffffffffff16631fe543e384836040518363ffffffff1660e01b81526004016103b9929190610997565b600060405180830381600087803b1580156103d357600080fd5b505af11580156103e7573d6000803e3d6000fd5b50505050827f80e9cce52c632372a5fe391a379bea445e6c4e5d282fc4a3f05ab14bd84c5d68828460405161041d9291906109c7565b60405180910390a26003600084815260200190815260200160002060006101000a81549073ffffffffffffffffffffffffffffffffffffffff0219169055505050565b60025481565b60015481565b60606000600167ffffffffffffffff81111561048b5761048a6109f7565b5b6040519080825280602002602001820160405280156104b95781602001602082028036833780820191505090505b509050600254816000815181106104d3576104d2610a26565b5b6020026020010181815250508091505090565b600080fd5b6000819050919050565b6104fe816104eb565b811461050957600080fd5b50565b60008135905061051b816104f5565b92915050565b600060208284031215610537576105366104e6565b5b60006105458482850161050c565b91505092915050565b600073ffffffffffffffffffffffffffffffffffffffff82169050919050565b60006105798261054e565b9050919050565b6105898161056e565b82525050565b60006020820190506105a46000830184610580565b92915050565b6000819050919050565b6105bd816105aa565b81146105c857600080fd5b50565b6000813590506105da816105b4565b92915050565b600067ffffffffffffffff82169050919050565b6105fd816105e0565b811461060857600080fd5b50565b60008135905061061a816105f4565b92915050565b600061ffff82169050919050565b61063781610620565b811461064257600080fd5b50565b6000813590506106548161062e565b92915050565b600063ffffffff82169050919050565b6106738161065a565b811461067e57600080fd5b50565b6000813590506106908161066a565b92915050565b600080600080600060a086880312156106b2576106b16104e6565b5b60006106c0888289016105cb565b95505060206106d18882890161060b565b94505060406106e288828901610645565b93505060606106f388828901610681565b925050608061070488828901610681565b9150509295509295909350565b61071a816104eb565b82525050565b60006020820190506107356000830184610711565b92915050565b6107448161056e565b811461074f57600080fd5b50565b6000813590506107618161073b565b92915050565b6000806040838503121561077e5761077d6104e6565b5b600061078c8582860161050c565b925050602061079d85828601610752565b9150509250929050565b7f4e487b7100000000000000000000000000000000000000000000000000000000600052601160045260246000fd5b60006107e1826104eb565b91507fffffffffffffffffffffffffffffffffffffffffffffffffffffffffffffffff8203610813576108126107a7565b5b600182019050919050565b600082825260208201905092915050565b7f436f6e73756d6572206d69736d61746368000000000000000000000000000000600082015250565b600061086560118361081e565b91506108708261082f565b602082019050919050565b6000602082019050818103600083015261089481610858565b9050919050565b600081519050919050565b600082825260208201905092915050565b6000819050602082019050919050565b6108d0816104eb565b82525050565b60006108e283836108c7565b60208301905092915050565b6000602082019050919050565b60006109068261089b565b61091081856108a6565b935061091b836108b7565b8060005b8381101561094c57815161093388826108d6565b975061093e836108ee565b92505060018101905061091f565b5085935050505092915050565b600060608201905061096e6000830186610711565b61097b6020830185610580565b818103604083015261098d81846108fb565b9050949350505050565b60006040820190506109ac6000830185610711565b81810360208301526109be81846108fb565b90509392505050565b600060408201905081810360008301526109e181856108fb565b90506109f06020830184610580565b9392505050565b7f4e487b7100000000000000000000000000000000000000000000000000000000600052604160045260246000fd5b7f4e487b7100000000000000000000000000000000000000000000000000000000600052603260045260246000fdfea26469706673582212206b3d06b46ef78d3ba9f0449fe1f52a0fa7f50fdb68a232f7bd044a8730a10d7d64736f6c63430008110033",
  "linkReferences": {},
  "deployedLinkReferences": {}
}